{
	"Contracts/Functions.sol": {
		"Functions": {
			"abi": [
				{
					"inputs": [
						{
							"internalType": "uint256",
							"name": "x",
							"type": "uint256"
						},
						{
							"internalType": "uint256",
							"name": "y",
							"type": "uint256"
						}
					],
					"name": "add",
					"outputs": [
						{
							"internalType": "uint256",
							"name": "",
							"type": "uint256"
						}
					],
					"stateMutability": "pure",
					"type": "function"
				},
				{
					"inputs": [
						{
							"internalType": "uint256",
							"name": "x",
							"type": "uint256"
						},
						{
							"internalType": "uint256",
							"name": "y",
							"type": "uint256"
						}
					],
					"name": "div",
					"outputs": [
						{
							"internalType": "uint256",
							"name": "",
							"type": "uint256"
						}
					],
					"stateMutability": "pure",
					"type": "function"
				},
				{
					"inputs": [
						{
							"internalType": "uint256",
							"name": "x",
							"type": "uint256"
						},
						{
							"internalType": "uint256",
							"name": "y",
							"type": "uint256"
						}
					],
					"name": "mul",
					"outputs": [
						{
							"internalType": "uint256",
							"name": "",
							"type": "uint256"
						}
					],
					"stateMutability": "pure",
					"type": "function"
				},
				{
					"inputs": [
						{
							"internalType": "uint256",
							"name": "x",
							"type": "uint256"
						},
						{
							"internalType": "uint256",
							"name": "y",
							"type": "uint256"
						}
					],
					"name": "sub",
					"outputs": [
						{
							"internalType": "uint256",
							"name": "",
							"type": "uint256"
						}
					],
					"stateMutability": "pure",
					"type": "function"
				}
			],
			"devdoc": {
				"kind": "dev",
				"methods": {},
				"version": 1
			},
			"evm": {
				"assembly": "    /* \"Contracts/Functions.sol\":64:455  contract Functions {... */\n  mstore(0x40, 0x80)\n  callvalue\n  dup1\n  iszero\n  tag_1\n  jumpi\n  0x00\n  dup1\n  revert\ntag_1:\n  pop\n  dataSize(sub_0)\n  dup1\n  dataOffset(sub_0)\n  0x00\n  codecopy\n  0x00\n  return\nstop\n\nsub_0: assembly {\n        /* \"Contracts/Functions.sol\":64:455  contract Functions {... */\n      mstore(0x40, 0x80)\n      callvalue\n      dup1\n      iszero\n      tag_1\n      jumpi\n      0x00\n      dup1\n      revert\n    tag_1:\n      pop\n      jumpi(tag_2, lt(calldatasize, 0x04))\n      shr(0xe0, calldataload(0x00))\n      dup1\n      0x771602f7\n      eq\n      tag_3\n      jumpi\n      dup1\n      0xa391c15b\n      eq\n      tag_4\n      jumpi\n      dup1\n      0xb67d77c5\n      eq\n      tag_5\n      jumpi\n      dup1\n      0xc8a4ac9c\n      eq\n      tag_6\n      jumpi\n    tag_2:\n      0x00\n      dup1\n      revert\n        /* \"Contracts/Functions.sol\":90:174  function add(uint x, uint y) public pure returns(uint) {... */\n    tag_3:\n      tag_7\n      0x04\n      dup1\n      calldatasize\n      sub\n      dup2\n      add\n      swap1\n      tag_8\n      swap2\n      swap1\n      tag_9\n      jump\t// in\n    tag_8:\n      tag_10\n      jump\t// in\n    tag_7:\n      mload(0x40)\n      tag_11\n      swap2\n      swap1\n      tag_12\n      jump\t// in\n    tag_11:\n      mload(0x40)\n      dup1\n      swap2\n      sub\n      swap1\n      return\n        /* \"Contracts/Functions.sol\":367:453  function div(uint x, uint y) public pure returns(uint) {... */\n    tag_4:\n      tag_13\n      0x04\n      dup1\n      calldatasize\n      sub\n      dup2\n      add\n      swap1\n      tag_14\n      swap2\n      swap1\n      tag_9\n      jump\t// in\n    tag_14:\n      tag_15\n      jump\t// in\n    tag_13:\n      mload(0x40)\n      tag_16\n      swap2\n      swap1\n      tag_12\n      jump\t// in\n    tag_16:\n      mload(0x40)\n      dup1\n      swap2\n      sub\n      swap1\n      return\n        /* \"Contracts/Functions.sol\":181:267  function sub(uint x, uint y) public pure returns(uint) {... */\n    tag_5:\n      tag_17\n      0x04\n      dup1\n      calldatasize\n      sub\n      dup2\n      add\n      swap1\n      tag_18\n      swap2\n      swap1\n      tag_9\n      jump\t// in\n    tag_18:\n      tag_19\n      jump\t// in\n    tag_17:\n      mload(0x40)\n      tag_20\n      swap2\n      swap1\n      tag_12\n      jump\t// in\n    tag_20:\n      mload(0x40)\n      dup1\n      swap2\n      sub\n      swap1\n      return\n        /* \"Contracts/Functions.sol\":274:360  function mul(uint x, uint y) public pure returns(uint) {... */\n    tag_6:\n      tag_21\n      0x04\n      dup1\n      calldatasize\n      sub\n      dup2\n      add\n      swap1\n      tag_22\n      swap2\n      swap1\n      tag_9\n      jump\t// in\n    tag_22:\n      tag_23\n      jump\t// in\n    tag_21:\n      mload(0x40)\n      tag_24\n      swap2\n      swap1\n      tag_12\n      jump\t// in\n    tag_24:\n      mload(0x40)\n      dup1\n      swap2\n      sub\n      swap1\n      return\n        /* \"Contracts/Functions.sol\":90:174  function add(uint x, uint y) public pure returns(uint) {... */\n    tag_10:\n        /* \"Contracts/Functions.sol\":139:143  uint */\n      0x00\n        /* \"Contracts/Functions.sol\":165:166  y */\n      dup2\n        /* \"Contracts/Functions.sol\":161:162  x */\n      dup4\n        /* \"Contracts/Functions.sol\":161:166  x + y */\n      tag_26\n      swap2\n      swap1\n      tag_27\n      jump\t// in\n    tag_26:\n        /* \"Contracts/Functions.sol\":154:166  return x + y */\n      swap1\n      pop\n        /* \"Contracts/Functions.sol\":90:174  function add(uint x, uint y) public pure returns(uint) {... */\n      swap3\n      swap2\n      pop\n      pop\n      jump\t// out\n        /* \"Contracts/Functions.sol\":367:453  function div(uint x, uint y) public pure returns(uint) {... */\n    tag_15:\n        /* \"Contracts/Functions.sol\":416:420  uint */\n      0x00\n        /* \"Contracts/Functions.sol\":444:445  y */\n      dup2\n        /* \"Contracts/Functions.sol\":440:441  x */\n      dup4\n        /* \"Contracts/Functions.sol\":440:445  x / y */\n      tag_29\n      swap2\n      swap1\n      tag_30\n      jump\t// in\n    tag_29:\n        /* \"Contracts/Functions.sol\":433:445  return x / y */\n      swap1\n      pop\n        /* \"Contracts/Functions.sol\":367:453  function div(uint x, uint y) public pure returns(uint) {... */\n      swap3\n      swap2\n      pop\n      pop\n      jump\t// out\n        /* \"Contracts/Functions.sol\":181:267  function sub(uint x, uint y) public pure returns(uint) {... */\n    tag_19:\n        /* \"Contracts/Functions.sol\":230:234  uint */\n      0x00\n        /* \"Contracts/Functions.sol\":258:259  y */\n      dup2\n        /* \"Contracts/Functions.sol\":254:255  x */\n      dup4\n        /* \"Contracts/Functions.sol\":254:259  x - y */\n      tag_32\n      swap2\n      swap1\n      tag_33\n      jump\t// in\n    tag_32:\n        /* \"Contracts/Functions.sol\":247:259  return x - y */\n      swap1\n      pop\n        /* \"Contracts/Functions.sol\":181:267  function sub(uint x, uint y) public pure returns(uint) {... */\n      swap3\n      swap2\n      pop\n      pop\n      jump\t// out\n        /* \"Contracts/Functions.sol\":274:360  function mul(uint x, uint y) public pure returns(uint) {... */\n    tag_23:\n        /* \"Contracts/Functions.sol\":323:327  uint */\n      0x00\n        /* \"Contracts/Functions.sol\":351:352  y */\n      dup2\n        /* \"Contracts/Functions.sol\":347:348  x */\n      dup4\n        /* \"Contracts/Functions.sol\":347:352  x * y */\n      tag_35\n      swap2\n      swap1\n      tag_36\n      jump\t// in\n    tag_35:\n        /* \"Contracts/Functions.sol\":340:352  return x * y */\n      swap1\n      pop\n        /* \"Contracts/Functions.sol\":274:360  function mul(uint x, uint y) public pure returns(uint) {... */\n      swap3\n      swap2\n      pop\n      pop\n      jump\t// out\n        /* \"#utility.yul\":88:205   */\n    tag_38:\n        /* \"#utility.yul\":197:198   */\n      0x00\n        /* \"#utility.yul\":194:195   */\n      dup1\n        /* \"#utility.yul\":187:199   */\n      revert\n        /* \"#utility.yul\":334:411   */\n    tag_40:\n        /* \"#utility.yul\":371:378   */\n      0x00\n        /* \"#utility.yul\":400:405   */\n      dup2\n        /* \"#utility.yul\":389:405   */\n      swap1\n      pop\n        /* \"#utility.yul\":334:411   */\n      swap2\n      swap1\n      pop\n      jump\t// out\n        /* \"#utility.yul\":417:539   */\n    tag_41:\n        /* \"#utility.yul\":490:514   */\n      tag_52\n        /* \"#utility.yul\":508:513   */\n      dup2\n        /* \"#utility.yul\":490:514   */\n      tag_40\n      jump\t// in\n    tag_52:\n        /* \"#utility.yul\":483:488   */\n      dup2\n        /* \"#utility.yul\":480:515   */\n      eq\n        /* \"#utility.yul\":470:533   */\n      tag_53\n      jumpi\n        /* \"#utility.yul\":529:530   */\n      0x00\n        /* \"#utility.yul\":526:527   */\n      dup1\n        /* \"#utility.yul\":519:531   */\n      revert\n        /* \"#utility.yul\":470:533   */\n    tag_53:\n        /* \"#utility.yul\":417:539   */\n      pop\n      jump\t// out\n        /* \"#utility.yul\":545:684   */\n    tag_42:\n        /* \"#utility.yul\":591:596   */\n      0x00\n        /* \"#utility.yul\":629:635   */\n      dup2\n        /* \"#utility.yul\":616:636   */\n      calldataload\n        /* \"#utility.yul\":607:636   */\n      swap1\n      pop\n        /* \"#utility.yul\":645:678   */\n      tag_55\n        /* \"#utility.yul\":672:677   */\n      dup2\n        /* \"#utility.yul\":645:678   */\n      tag_41\n      jump\t// in\n    tag_55:\n        /* \"#utility.yul\":545:684   */\n      swap3\n      swap2\n      pop\n      pop\n      jump\t// out\n        /* \"#utility.yul\":690:1164   */\n    tag_9:\n        /* \"#utility.yul\":758:764   */\n      0x00\n        /* \"#utility.yul\":766:772   */\n      dup1\n        /* \"#utility.yul\":815:817   */\n      0x40\n        /* \"#utility.yul\":803:812   */\n      dup4\n        /* \"#utility.yul\":794:801   */\n      dup6\n        /* \"#utility.yul\":790:813   */\n      sub\n        /* \"#utility.yul\":786:818   */\n      slt\n        /* \"#utility.yul\":783:902   */\n      iszero\n      tag_57\n      jumpi\n        /* \"#utility.yul\":821:900   */\n      tag_58\n      tag_38\n      jump\t// in\n    tag_58:\n        /* \"#utility.yul\":783:902   */\n    tag_57:\n        /* \"#utility.yul\":941:942   */\n      0x00\n        /* \"#utility.yul\":966:1019   */\n      tag_59\n        /* \"#utility.yul\":1011:1018   */\n      dup6\n        /* \"#utility.yul\":1002:1008   */\n      dup3\n        /* \"#utility.yul\":991:1000   */\n      dup7\n        /* \"#utility.yul\":987:1009   */\n      add\n        /* \"#utility.yul\":966:1019   */\n      tag_42\n      jump\t// in\n    tag_59:\n        /* \"#utility.yul\":956:1019   */\n      swap3\n      pop\n        /* \"#utility.yul\":912:1029   */\n      pop\n        /* \"#utility.yul\":1068:1070   */\n      0x20\n        /* \"#utility.yul\":1094:1147   */\n      tag_60\n        /* \"#utility.yul\":1139:1146   */\n      dup6\n        /* \"#utility.yul\":1130:1136   */\n      dup3\n        /* \"#utility.yul\":1119:1128   */\n      dup7\n        /* \"#utility.yul\":1115:1137   */\n      add\n        /* \"#utility.yul\":1094:1147   */\n      tag_42\n      jump\t// in\n    tag_60:\n        /* \"#utility.yul\":1084:1147   */\n      swap2\n      pop\n        /* \"#utility.yul\":1039:1157   */\n      pop\n        /* \"#utility.yul\":690:1164   */\n      swap3\n      pop\n      swap3\n      swap1\n      pop\n      jump\t// out\n        /* \"#utility.yul\":1170:1288   */\n    tag_43:\n        /* \"#utility.yul\":1257:1281   */\n      tag_62\n        /* \"#utility.yul\":1275:1280   */\n      dup2\n        /* \"#utility.yul\":1257:1281   */\n      tag_40\n      jump\t// in\n    tag_62:\n        /* \"#utility.yul\":1252:1255   */\n      dup3\n        /* \"#utility.yul\":1245:1282   */\n      mstore\n        /* \"#utility.yul\":1170:1288   */\n      pop\n      pop\n      jump\t// out\n        /* \"#utility.yul\":1294:1516   */\n    tag_12:\n        /* \"#utility.yul\":1387:1391   */\n      0x00\n        /* \"#utility.yul\":1425:1427   */\n      0x20\n        /* \"#utility.yul\":1414:1423   */\n      dup3\n        /* \"#utility.yul\":1410:1428   */\n      add\n        /* \"#utility.yul\":1402:1428   */\n      swap1\n      pop\n        /* \"#utility.yul\":1438:1509   */\n      tag_64\n        /* \"#utility.yul\":1506:1507   */\n      0x00\n        /* \"#utility.yul\":1495:1504   */\n      dup4\n        /* \"#utility.yul\":1491:1508   */\n      add\n        /* \"#utility.yul\":1482:1488   */\n      dup5\n        /* \"#utility.yul\":1438:1509   */\n      tag_43\n      jump\t// in\n    tag_64:\n        /* \"#utility.yul\":1294:1516   */\n      swap3\n      swap2\n      pop\n      pop\n      jump\t// out\n        /* \"#utility.yul\":1522:1702   */\n    tag_44:\n        /* \"#utility.yul\":1570:1647   */\n      0x4e487b7100000000000000000000000000000000000000000000000000000000\n        /* \"#utility.yul\":1567:1568   */\n      0x00\n        /* \"#utility.yul\":1560:1648   */\n      mstore\n        /* \"#utility.yul\":1667:1671   */\n      0x11\n        /* \"#utility.yul\":1664:1665   */\n      0x04\n        /* \"#utility.yul\":1657:1672   */\n      mstore\n        /* \"#utility.yul\":1691:1695   */\n      0x24\n        /* \"#utility.yul\":1688:1689   */\n      0x00\n        /* \"#utility.yul\":1681:1696   */\n      revert\n        /* \"#utility.yul\":1708:1899   */\n    tag_27:\n        /* \"#utility.yul\":1748:1751   */\n      0x00\n        /* \"#utility.yul\":1767:1787   */\n      tag_67\n        /* \"#utility.yul\":1785:1786   */\n      dup3\n        /* \"#utility.yul\":1767:1787   */\n      tag_40\n      jump\t// in\n    tag_67:\n        /* \"#utility.yul\":1762:1787   */\n      swap2\n      pop\n        /* \"#utility.yul\":1801:1821   */\n      tag_68\n        /* \"#utility.yul\":1819:1820   */\n      dup4\n        /* \"#utility.yul\":1801:1821   */\n      tag_40\n      jump\t// in\n    tag_68:\n        /* \"#utility.yul\":1796:1821   */\n      swap3\n      pop\n        /* \"#utility.yul\":1844:1845   */\n      dup3\n        /* \"#utility.yul\":1841:1842   */\n      dup3\n        /* \"#utility.yul\":1837:1846   */\n      add\n        /* \"#utility.yul\":1830:1846   */\n      swap1\n      pop\n        /* \"#utility.yul\":1865:1868   */\n      dup1\n        /* \"#utility.yul\":1862:1863   */\n      dup3\n        /* \"#utility.yul\":1859:1869   */\n      gt\n        /* \"#utility.yul\":1856:1892   */\n      iszero\n      tag_69\n      jumpi\n        /* \"#utility.yul\":1872:1890   */\n      tag_70\n      tag_44\n      jump\t// in\n    tag_70:\n        /* \"#utility.yul\":1856:1892   */\n    tag_69:\n        /* \"#utility.yul\":1708:1899   */\n      swap3\n      swap2\n      pop\n      pop\n      jump\t// out\n        /* \"#utility.yul\":1905:2085   */\n    tag_45:\n        /* \"#utility.yul\":1953:2030   */\n      0x4e487b7100000000000000000000000000000000000000000000000000000000\n        /* \"#utility.yul\":1950:1951   */\n      0x00\n        /* \"#utility.yul\":1943:2031   */\n      mstore\n        /* \"#utility.yul\":2050:2054   */\n      0x12\n        /* \"#utility.yul\":2047:2048   */\n      0x04\n        /* \"#utility.yul\":2040:2055   */\n      mstore\n        /* \"#utility.yul\":2074:2078   */\n      0x24\n        /* \"#utility.yul\":2071:2072   */\n      0x00\n        /* \"#utility.yul\":2064:2079   */\n      revert\n        /* \"#utility.yul\":2091:2276   */\n    tag_30:\n        /* \"#utility.yul\":2131:2132   */\n      0x00\n        /* \"#utility.yul\":2148:2168   */\n      tag_73\n        /* \"#utility.yul\":2166:2167   */\n      dup3\n        /* \"#utility.yul\":2148:2168   */\n      tag_40\n      jump\t// in\n    tag_73:\n        /* \"#utility.yul\":2143:2168   */\n      swap2\n      pop\n        /* \"#utility.yul\":2182:2202   */\n      tag_74\n        /* \"#utility.yul\":2200:2201   */\n      dup4\n        /* \"#utility.yul\":2182:2202   */\n      tag_40\n      jump\t// in\n    tag_74:\n        /* \"#utility.yul\":2177:2202   */\n      swap3\n      pop\n        /* \"#utility.yul\":2221:2222   */\n      dup3\n        /* \"#utility.yul\":2211:2246   */\n      tag_75\n      jumpi\n        /* \"#utility.yul\":2226:2244   */\n      tag_76\n      tag_45\n      jump\t// in\n    tag_76:\n        /* \"#utility.yul\":2211:2246   */\n    tag_75:\n        /* \"#utility.yul\":2268:2269   */\n      dup3\n        /* \"#utility.yul\":2265:2266   */\n      dup3\n        /* \"#utility.yul\":2261:2270   */\n      div\n        /* \"#utility.yul\":2256:2270   */\n      swap1\n      pop\n        /* \"#utility.yul\":2091:2276   */\n      swap3\n      swap2\n      pop\n      pop\n      jump\t// out\n        /* \"#utility.yul\":2282:2476   */\n    tag_33:\n        /* \"#utility.yul\":2322:2326   */\n      0x00\n        /* \"#utility.yul\":2342:2362   */\n      tag_78\n        /* \"#utility.yul\":2360:2361   */\n      dup3\n        /* \"#utility.yul\":2342:2362   */\n      tag_40\n      jump\t// in\n    tag_78:\n        /* \"#utility.yul\":2337:2362   */\n      swap2\n      pop\n        /* \"#utility.yul\":2376:2396   */\n      tag_79\n        /* \"#utility.yul\":2394:2395   */\n      dup4\n        /* \"#utility.yul\":2376:2396   */\n      tag_40\n      jump\t// in\n    tag_79:\n        /* \"#utility.yul\":2371:2396   */\n      swap3\n      pop\n        /* \"#utility.yul\":2420:2421   */\n      dup3\n        /* \"#utility.yul\":2417:2418   */\n      dup3\n        /* \"#utility.yul\":2413:2422   */\n      sub\n        /* \"#utility.yul\":2405:2422   */\n      swap1\n      pop\n        /* \"#utility.yul\":2444:2445   */\n      dup2\n        /* \"#utility.yul\":2438:2442   */\n      dup2\n        /* \"#utility.yul\":2435:2446   */\n      gt\n        /* \"#utility.yul\":2432:2469   */\n      iszero\n      tag_80\n      jumpi\n        /* \"#utility.yul\":2449:2467   */\n      tag_81\n      tag_44\n      jump\t// in\n    tag_81:\n        /* \"#utility.yul\":2432:2469   */\n    tag_80:\n        /* \"#utility.yul\":2282:2476   */\n      swap3\n      swap2\n      pop\n      pop\n      jump\t// out\n        /* \"#utility.yul\":2482:2892   */\n    tag_36:\n        /* \"#utility.yul\":2522:2529   */\n      0x00\n        /* \"#utility.yul\":2545:2565   */\n      tag_83\n        /* \"#utility.yul\":2563:2564   */\n      dup3\n        /* \"#utility.yul\":2545:2565   */\n      tag_40\n      jump\t// in\n    tag_83:\n        /* \"#utility.yul\":2540:2565   */\n      swap2\n      pop\n        /* \"#utility.yul\":2579:2599   */\n      tag_84\n        /* \"#utility.yul\":2597:2598   */\n      dup4\n        /* \"#utility.yul\":2579:2599   */\n      tag_40\n      jump\t// in\n    tag_84:\n        /* \"#utility.yul\":2574:2599   */\n      swap3\n      pop\n        /* \"#utility.yul\":2634:2635   */\n      dup3\n        /* \"#utility.yul\":2631:2632   */\n      dup3\n        /* \"#utility.yul\":2627:2636   */\n      mul\n        /* \"#utility.yul\":2656:2686   */\n      tag_85\n        /* \"#utility.yul\":2674:2685   */\n      dup2\n        /* \"#utility.yul\":2656:2686   */\n      tag_40\n      jump\t// in\n    tag_85:\n        /* \"#utility.yul\":2645:2686   */\n      swap2\n      pop\n        /* \"#utility.yul\":2835:2836   */\n      dup3\n        /* \"#utility.yul\":2826:2833   */\n      dup3\n        /* \"#utility.yul\":2822:2837   */\n      div\n        /* \"#utility.yul\":2819:2820   */\n      dup5\n        /* \"#utility.yul\":2816:2838   */\n      eq\n        /* \"#utility.yul\":2796:2797   */\n      dup4\n        /* \"#utility.yul\":2789:2798   */\n      iszero\n        /* \"#utility.yul\":2769:2852   */\n      or\n        /* \"#utility.yul\":2746:2885   */\n      tag_86\n      jumpi\n        /* \"#utility.yul\":2865:2883   */\n      tag_87\n      tag_44\n      jump\t// in\n    tag_87:\n        /* \"#utility.yul\":2746:2885   */\n    tag_86:\n        /* \"#utility.yul\":2530:2892   */\n      pop\n        /* \"#utility.yul\":2482:2892   */\n      swap3\n      swap2\n      pop\n      pop\n      jump\t// out\n\n    auxdata: 0xa264697066735822122093f8d9f0f3c33c724cb4d8745893ecb9cfab07fde1ce2abc50612b125eb1e93064736f6c63430008120033\n}\n",
				"bytecode": {
					"linkReferences": {},
					"object": "608060405234801561001057600080fd5b5061037d806100206000396000f3fe608060405234801561001057600080fd5b506004361061004c5760003560e01c8063771602f714610051578063a391c15b14610081578063b67d77c5146100b1578063c8a4ac9c146100e1575b600080fd5b61006b600480360381019061006691906101a4565b610111565b60405161007891906101f3565b60405180910390f35b61009b600480360381019061009691906101a4565b610127565b6040516100a891906101f3565b60405180910390f35b6100cb60048036038101906100c691906101a4565b61013d565b6040516100d891906101f3565b60405180910390f35b6100fb60048036038101906100f691906101a4565b610153565b60405161010891906101f3565b60405180910390f35b6000818361011f919061023d565b905092915050565b6000818361013591906102a0565b905092915050565b6000818361014b91906102d1565b905092915050565b600081836101619190610305565b905092915050565b600080fd5b6000819050919050565b6101818161016e565b811461018c57600080fd5b50565b60008135905061019e81610178565b92915050565b600080604083850312156101bb576101ba610169565b5b60006101c98582860161018f565b92505060206101da8582860161018f565b9150509250929050565b6101ed8161016e565b82525050565b600060208201905061020860008301846101e4565b92915050565b7f4e487b7100000000000000000000000000000000000000000000000000000000600052601160045260246000fd5b60006102488261016e565b91506102538361016e565b925082820190508082111561026b5761026a61020e565b5b92915050565b7f4e487b7100000000000000000000000000000000000000000000000000000000600052601260045260246000fd5b60006102ab8261016e565b91506102b68361016e565b9250826102c6576102c5610271565b5b828204905092915050565b60006102dc8261016e565b91506102e78361016e565b92508282039050818111156102ff576102fe61020e565b5b92915050565b60006103108261016e565b915061031b8361016e565b92508282026103298161016e565b915082820484148315176103405761033f61020e565b5b509291505056fea264697066735822122093f8d9f0f3c33c724cb4d8745893ecb9cfab07fde1ce2abc50612b125eb1e93064736f6c63430008120033",
					"opcodes": "PUSH1 0x80 PUSH1 0x40 MSTORE CALLVALUE DUP1 ISZERO PUSH2 0x10 JUMPI PUSH1 0x0 DUP1 REVERT JUMPDEST POP PUSH2 0x37D DUP1 PUSH2 0x20 PUSH1 0x0 CODECOPY PUSH1 0x0 RETURN INVALID PUSH1 0x80 PUSH1 0x40 MSTORE CALLVALUE DUP1 ISZERO PUSH2 0x10 JUMPI PUSH1 0x0 DUP1 REVERT JUMPDEST POP PUSH1 0x4 CALLDATASIZE LT PUSH2 0x4C JUMPI PUSH1 0x0 CALLDATALOAD PUSH1 0xE0 SHR DUP1 PUSH4 0x771602F7 EQ PUSH2 0x51 JUMPI DUP1 PUSH4 0xA391C15B EQ PUSH2 0x81 JUMPI DUP1 PUSH4 0xB67D77C5 EQ PUSH2 0xB1 JUMPI DUP1 PUSH4 0xC8A4AC9C EQ PUSH2 0xE1 JUMPI JUMPDEST PUSH1 0x0 DUP1 REVERT JUMPDEST PUSH2 0x6B PUSH1 0x4 DUP1 CALLDATASIZE SUB DUP2 ADD SWAP1 PUSH2 0x66 SWAP2 SWAP1 PUSH2 0x1A4 JUMP JUMPDEST PUSH2 0x111 JUMP JUMPDEST PUSH1 0x40 MLOAD PUSH2 0x78 SWAP2 SWAP1 PUSH2 0x1F3 JUMP JUMPDEST PUSH1 0x40 MLOAD DUP1 SWAP2 SUB SWAP1 RETURN JUMPDEST PUSH2 0x9B PUSH1 0x4 DUP1 CALLDATASIZE SUB DUP2 ADD SWAP1 PUSH2 0x96 SWAP2 SWAP1 PUSH2 0x1A4 JUMP JUMPDEST PUSH2 0x127 JUMP JUMPDEST PUSH1 0x40 MLOAD PUSH2 0xA8 SWAP2 SWAP1 PUSH2 0x1F3 JUMP JUMPDEST PUSH1 0x40 MLOAD DUP1 SWAP2 SUB SWAP1 RETURN JUMPDEST PUSH2 0xCB PUSH1 0x4 DUP1 CALLDATASIZE SUB DUP2 ADD SWAP1 PUSH2 0xC6 SWAP2 SWAP1 PUSH2 0x1A4 JUMP JUMPDEST PUSH2 0x13D JUMP JUMPDEST PUSH1 0x40 MLOAD PUSH2 0xD8 SWAP2 SWAP1 PUSH2 0x1F3 JUMP JUMPDEST PUSH1 0x40 MLOAD DUP1 SWAP2 SUB SWAP1 RETURN JUMPDEST PUSH2 0xFB PUSH1 0x4 DUP1 CALLDATASIZE SUB DUP2 ADD SWAP1 PUSH2 0xF6 SWAP2 SWAP1 PUSH2 0x1A4 JUMP JUMPDEST PUSH2 0x153 JUMP JUMPDEST PUSH1 0x40 MLOAD PUSH2 0x108 SWAP2 SWAP1 PUSH2 0x1F3 JUMP JUMPDEST PUSH1 0x40 MLOAD DUP1 SWAP2 SUB SWAP1 RETURN JUMPDEST PUSH1 0x0 DUP2 DUP4 PUSH2 0x11F SWAP2 SWAP1 PUSH2 0x23D JUMP JUMPDEST SWAP1 POP SWAP3 SWAP2 POP POP JUMP JUMPDEST PUSH1 0x0 DUP2 DUP4 PUSH2 0x135 SWAP2 SWAP1 PUSH2 0x2A0 JUMP JUMPDEST SWAP1 POP SWAP3 SWAP2 POP POP JUMP JUMPDEST PUSH1 0x0 DUP2 DUP4 PUSH2 0x14B SWAP2 SWAP1 PUSH2 0x2D1 JUMP JUMPDEST SWAP1 POP SWAP3 SWAP2 POP POP JUMP JUMPDEST PUSH1 0x0 DUP2 DUP4 PUSH2 0x161 SWAP2 SWAP1 PUSH2 0x305 JUMP JUMPDEST SWAP1 POP SWAP3 SWAP2 POP POP JUMP JUMPDEST PUSH1 0x0 DUP1 REVERT JUMPDEST PUSH1 0x0 DUP2 SWAP1 POP SWAP2 SWAP1 POP JUMP JUMPDEST PUSH2 0x181 DUP2 PUSH2 0x16E JUMP JUMPDEST DUP2 EQ PUSH2 0x18C JUMPI PUSH1 0x0 DUP1 REVERT JUMPDEST POP JUMP JUMPDEST PUSH1 0x0 DUP2 CALLDATALOAD SWAP1 POP PUSH2 0x19E DUP2 PUSH2 0x178 JUMP JUMPDEST SWAP3 SWAP2 POP POP JUMP JUMPDEST PUSH1 0x0 DUP1 PUSH1 0x40 DUP4 DUP6 SUB SLT ISZERO PUSH2 0x1BB JUMPI PUSH2 0x1BA PUSH2 0x169 JUMP JUMPDEST JUMPDEST PUSH1 0x0 PUSH2 0x1C9 DUP6 DUP3 DUP7 ADD PUSH2 0x18F JUMP JUMPDEST SWAP3 POP POP PUSH1 0x20 PUSH2 0x1DA DUP6 DUP3 DUP7 ADD PUSH2 0x18F JUMP JUMPDEST SWAP2 POP POP SWAP3 POP SWAP3 SWAP1 POP JUMP JUMPDEST PUSH2 0x1ED DUP2 PUSH2 0x16E JUMP JUMPDEST DUP3 MSTORE POP POP JUMP JUMPDEST PUSH1 0x0 PUSH1 0x20 DUP3 ADD SWAP1 POP PUSH2 0x208 PUSH1 0x0 DUP4 ADD DUP5 PUSH2 0x1E4 JUMP JUMPDEST SWAP3 SWAP2 POP POP JUMP JUMPDEST PUSH32 0x4E487B7100000000000000000000000000000000000000000000000000000000 PUSH1 0x0 MSTORE PUSH1 0x11 PUSH1 0x4 MSTORE PUSH1 0x24 PUSH1 0x0 REVERT JUMPDEST PUSH1 0x0 PUSH2 0x248 DUP3 PUSH2 0x16E JUMP JUMPDEST SWAP2 POP PUSH2 0x253 DUP4 PUSH2 0x16E JUMP JUMPDEST SWAP3 POP DUP3 DUP3 ADD SWAP1 POP DUP1 DUP3 GT ISZERO PUSH2 0x26B JUMPI PUSH2 0x26A PUSH2 0x20E JUMP JUMPDEST JUMPDEST SWAP3 SWAP2 POP POP JUMP JUMPDEST PUSH32 0x4E487B7100000000000000000000000000000000000000000000000000000000 PUSH1 0x0 MSTORE PUSH1 0x12 PUSH1 0x4 MSTORE PUSH1 0x24 PUSH1 0x0 REVERT JUMPDEST PUSH1 0x0 PUSH2 0x2AB DUP3 PUSH2 0x16E JUMP JUMPDEST SWAP2 POP PUSH2 0x2B6 DUP4 PUSH2 0x16E JUMP JUMPDEST SWAP3 POP DUP3 PUSH2 0x2C6 JUMPI PUSH2 0x2C5 PUSH2 0x271 JUMP JUMPDEST JUMPDEST DUP3 DUP3 DIV SWAP1 POP SWAP3 SWAP2 POP POP JUMP JUMPDEST PUSH1 0x0 PUSH2 0x2DC DUP3 PUSH2 0x16E JUMP JUMPDEST SWAP2 POP PUSH2 0x2E7 DUP4 PUSH2 0x16E JUMP JUMPDEST SWAP3 POP DUP3 DUP3 SUB SWAP1 POP DUP2 DUP2 GT ISZERO PUSH2 0x2FF JUMPI PUSH2 0x2FE PUSH2 0x20E JUMP JUMPDEST JUMPDEST SWAP3 SWAP2 POP POP JUMP JUMPDEST PUSH1 0x0 PUSH2 0x310 DUP3 PUSH2 0x16E JUMP JUMPDEST SWAP2 POP PUSH2 0x31B DUP4 PUSH2 0x16E JUMP JUMPDEST SWAP3 POP DUP3 DUP3 MUL PUSH2 0x329 DUP2 PUSH2 0x16E JUMP JUMPDEST SWAP2 POP DUP3 DUP3 DIV DUP5 EQ DUP4 ISZERO OR PUSH2 0x340 JUMPI PUSH2 0x33F PUSH2 0x20E JUMP JUMPDEST JUMPDEST POP SWAP3 SWAP2 POP POP JUMP INVALID LOG2 PUSH5 0x6970667358 0x22 SLT KECCAK256 SWAP4 0xF8 0xD9 CREATE RETURN 0xC3 EXTCODECOPY PUSH19 0x4CB4D8745893ECB9CFAB07FDE1CE2ABC50612B SLT 0x5E 0xB1 0xE9 ADDRESS PUSH5 0x736F6C6343 STOP ADDMOD SLT STOP CALLER "
				},
				"gasEstimates": {
					"creation": {
						"codeDepositCost": "178600",
						"executionCost": "220",
						"totalCost": "178820"
					},
					"external": {
						"add(uint256,uint256)": "infinite",
						"div(uint256,uint256)": "infinite",
						"mul(uint256,uint256)": "infinite",
						"sub(uint256,uint256)": "infinite"
					}
				},
				"methodIdentifiers": {
					"add(uint256,uint256)": "771602f7",
					"div(uint256,uint256)": "a391c15b",
					"mul(uint256,uint256)": "c8a4ac9c",
					"sub(uint256,uint256)": "b67d77c5"
				}
			},
			"storageLayout": {
				"storage": [],
				"types": null
			},
			"userdoc": {
				"kind": "user",
				"methods": {},
				"version": 1
			}
		}
	}
}